:100000000C943E000C9453000C9453000C94530039
:100010000C9453000C9453000C9453000C94530014
:100020000C9453000C9453000C9453000C94530004
:100030000C9453000C9453000C9453000C945300F4
:100040000C9453000C9453000C9453000C945300E4
:100050000C9453000C9453000C9453000C945300D4
:100060000C9453000C9453000C9453000C945300C4
:100070000C9453000C9453000C94530011241FBE95
:10008000CFEFD4E0DEBFCDBF11E0A0E0B1E0ECEAFD
:10009000FAE002C005900D92AE32B107D9F70E9486
:1000A00004020C9454050C94000090917C0087701D
:1000B000987F892B80937C0080917A008064809364
:1000C0007A0080917A0086FDFCCF809178002091A3
:1000D000790090E0922B08951092B90084E080930B
:1000E000B8008093BC00089584EA8093BC0080919E
:1000F000BC0087FFFCCF089584E98093BC00809109
:10010000BC0084FDFCCF08958093BB0084E88093FD
:10011000BC008091BC0087FFFCCF089584EC8093E5
:10012000BC008091BC0087FFFCCF8091BB0008958C
:1001300084E88093BC008091BC0087FFFCCF809155
:10014000BB0008958091B900887F0895FF920F93B6
:100150001F93CF93DF93CDB7DEB766970FB6F894B2
:10016000DEBF0FBECDBF082FF62E1091B900187F4D
:10017000181701F162E080E00E947A011F92FF925D
:100180001F920F931F921F9380E091E09F938F9394
:100190008E010F5F1F4F1F930F930E947302C801C0
:1001A0000E94B3010FB6F894DEBF0FBECDBF81E051
:1001B00090E002C080E090E066960FB6F894DEBF53
:1001C0000FBECDBFDF91CF911F910F91FF9008958A
:1001D0001F93CF93DF93EC01162F0E94740061E010
:1001E00088E00E94A600892B41F580E50E948400EA
:1001F00062E088E10E94A600892BF9F4209711F4AF
:1002000089EA05C0219711F48AEA01C08FEA0E94A9
:10021000840063E088E20E94A600892B71F4812F9C
:100220000E94840064E088E20E94A600892B29F4E1
:10023000DF91CF911F910C947C00DF91CF911F91A2
:1002400008952E9A00C02E9808951F93CF93DF93A0
:100250001F92CDB7DEB7662311F02C9A01C02C98FF
:100260002D9894B19F6094B915B1107F982F9295F5
:100270009F70912B95B989830E94210189818F708C
:10028000812B85B90E9421011F6015B90F90DF9164
:10029000CF911F9108952C982D9A84B1807F84B9B5
:1002A0002E9A00C083B12E9800C02E9A00C093B140
:1002B0009F708295807F2E98892B08950E944B0114
:1002C00087FDFCCF84E090E00197F1F70C944B019F
:1002D000CF93C82F0E945E0160E08C2FCF910C94C9
:1002E0002501CF93C82F0E945E0161E08C2FCF9132
:1002F0000C942501611102C0805809C0613011F4CD
:10030000805405C0623011F48C5601C08C520C949C
:1003100068010E945E0190E0089581E00C946801FC
:1003200082E00C946801CF93C82F0E945E01982F41
:10033000CA30A1F4843148F080EC890F843138F060
:1003400094519C3230F484E505C080E403C084E11C
:1003500001C080E08058CF910C94680161E08C2F3F
:10036000CF910C942501CF93DF93EC0189918823E1
:1003700019F00E949301FACFDF91CF910895CF93A6
:10038000DF93FC018491EF012196882321F00E94E4
:100390009301FE01F7CFDF91CF9108958FE784B9E4
:1003A0000895CF93C82F94B19F6794B9E0EAF6E817
:1003B0003197F1F7299A289A0E942101E0E0F7E2AB
:1003C0003197F1F70E942101E0E8F0E03197F1F771
:1003D0000E942101E0E8F0E03197F1F728980E94AF
:1003E0002101E0E8F0E03197F1F788E20E9468012E
:1003F00088E00E9468010E948D0186E00E946801E9
:100400008C2FCF910C946801CF93DF93CDB7DEB7DB
:100410002A970FB6F894DEBF0FBECDBF8CE00E94C6
:10042000D1010E948D0160E080E00E947A0180E1AC
:1004300091E00E94B30161E080E00E947A0180E2D5
:1004400091E00E94B30180917C00806480937C00E5
:1004500080917A00846080937A0080917A0080682D
:1004600080937A000E946C0068E780E090E00E9430
:10047000E80080E00E9455004AE0BE016F5F7F4FB8
:100480000E944E0263E080E00E947A01CE01019654
:100490000E94B30180E20E949301EBCFBB274A3058
:1004A00031F4992322F4BDE2909581959F4F0C94ED
:1004B0005A02BB27FB015527AA27880F991FAA1F9D
:1004C000A41710F0A41B83955051B9F7A05DAA336F
:1004D00008F0A95DA193009779F7B111B19311923A
:1004E000CB010C947D04AEE0B0E0E9E7F2E00C94BF
:1004F0002B050D891E8986E08C831A8309838FEF73
:100500009FE79E838D83AE01475E5F4F6F89788D35
:10051000CE0101960E949502EF81F885E00FF11F50
:1005200010822E96E4E00C944705ACE0B0E0EBE9D5
:10053000F2E00C941D057C016B018A01FC0117821D
:100540001682838181FFBDC1CE0101964C01F70166
:100550009381F60193FD859193FF81916F0188232B
:1005600009F4ABC1853239F493FD859193FF8191F4
:100570006F01853229F4B70190E00E948D04E7CF26
:10058000512C312C20E02032A0F48B3269F030F471
:10059000803259F0833269F420612CC08D3239F0F9
:1005A000803339F4216026C02260246023C0286093
:1005B00021C027FD27C030ED380F3A3078F426FFF0
:1005C00006C0FAE05F9E300D1124532E13C08AE05E
:1005D000389E300D1124332E20620CC08E3221F44F
:1005E00026FD6BC1206406C08C3611F4206802C061
:1005F000883641F4F60193FD859193FF81916F0157
:100600008111C1CF982F9F7D9554933028F40C5FB2
:100610001F4FFFE3F9830DC0833631F0833771F04C
:10062000833509F05BC022C0F801808189830E5FA9
:100630001F4F44244394512C540115C03801F2E05B
:100640006F0E711CF801A080B18026FF03C0652DDC
:1006500070E002C06FEF7FEFC5012C870E9472042B
:100660002C0183012C852F77222E17C03801F2E050
:100670006F0E711CF801A080B18026FF03C0652DAC
:1006800070E002C06FEF7FEFC5012C870E94670406
:100690002C012C852068222E830123FC1BC0832D76
:1006A00090E048165906B0F4B70180E290E00E944D
:1006B0008D043A94F4CFF50127FC859127FE8191B2
:1006C0005F01B70190E00E948D0431103A94F1E08F
:1006D0004F1A51084114510471F7E5C0843611F0E6
:1006E000893639F5F80127FF07C060817181828161
:1006F00093810C5F1F4F08C060817181882777FD4F
:100700008095982F0E5F1F4F2F76B22E97FF09C04E
:1007100090958095709561957F4F8F4F9F4F206882
:10072000B22E2AE030E0A4010E94BF04A82EA8182F
:1007300044C0853729F42F7EB22E2AE030E025C050
:10074000F22FF97FBF2E8F36C1F018F4883579F07B
:10075000B4C0803719F0883721F0AFC02F2F206147
:10076000B22EB4FE0DC08B2D8460B82E09C024FFBC
:100770000AC09F2F9660B92E06C028E030E005C061
:1007800020E130E002C020E132E0F801B7FE07C00E
:1007900060817181828193810C5F1F4F06C06081EF
:1007A000718180E090E00E5F1F4FA4010E94BF04A2
:1007B000A82EA818FB2DFF77BF2EB6FE0BC02B2D41
:1007C0002E7FA51450F4B4FE0AC0B2FC08C02B2D35
:1007D0002E7E05C07A2C2B2D03C07A2C01C0752CDF
:1007E00024FF0DC0FE01EA0DF11D8081803311F45C
:1007F000297E09C022FF06C07394739404C0822F1F
:10080000867809F0739423FD13C020FF06C05A2C8C
:10081000731418F4530C5718732C731468F4B7013D
:1008200080E290E02C870E948D0473942C85F5CF94
:10083000731410F4371801C0312C24FF12C0B70113
:1008400080E390E02C870E948D042C8522FF17C046
:1008500021FF03C088E590E002C088E790E0B7017F
:100860000CC0822F867859F021FD02C080E201C0C1
:100870008BE227FD8DE2B70190E00E948D04A51464
:1008800038F4B70180E390E00E948D045A94F7CFCA
:10089000AA94F401EA0DF11D8081B70190E00E9455
:1008A0008D04A110F5CF332009F451CEB70180E2B9
:1008B00090E00E948D043A94F6CFF70186819781EB
:1008C00002C08FEF9FEF2C96E2E10C943905FC01FA
:1008D0000590615070400110D8F7809590958E0F6B
:1008E0009F1F0895FC016150704001900110D8F7DE
:1008F000809590958E0F9F1F0895DC01FC01672F56
:1009000071917723E1F7329704C07C916D937083E6
:100910006291AE17BF07C8F308950F931F93CF934B
:10092000DF93182F092FEB018B8181FD03C08FEF1F
:100930009FEF20C082FF10C04E815F812C813D81DE
:10094000421753077CF4E881F9819F012F5F3F4FE5
:1009500039832883108306C0E885F985812F09959E
:10096000892B29F72E813F812F5F3F4F3F832E83B5
:10097000812F902FDF91CF911F910F910895FA0150
:10098000AA27283051F1203181F1E8946F936E7FCE
:100990006E5F7F4F8F4F9F4FAF4FB1E03ED0B4E0BF
:1009A0003CD0670F781F891F9A1FA11D680F791F00
:1009B0008A1F911DA11D6A0F711D811D911DA11D11
:1009C00020D009F468943F912AE0269F1124301921
:1009D000305D3193DEF6CF010895462F4770405DBC
:1009E0004193B3E00FD0C9F7F6CF462F4F70405D6B
:1009F0004A3318F0495D31FD4052419302D0A9F7C6
:100A0000EACFB4E0A6959795879577956795BA95BF
:100A1000C9F700976105710508959B01AC010A2E85
:100A200006945795479537952795BA95C9F7620F5C
:100A3000731F841F951FA01D08952F923F924F9200
:100A40005F926F927F928F929F92AF92BF92CF925E
:100A5000DF92EF92FF920F931F93CF93DF93CDB767
:100A6000DEB7CA1BDB0B0FB6F894DEBF0FBECDBFDF
:100A700009942A88398848885F846E847D848C84B0
:100A80009B84AA84B984C884DF80EE80FD800C81B9
:100A90001B81AA81B981CE0FD11D0FB6F894DEBF9C
:0C0AA0000FBECDBFED010895F894FFCF0C
:100AAC00453A202569202D202569202D2025690017
:100ABC0056656C6B6F6D6D656E204F6C65204B00D1
:0E0ACC005669726B65722E2E2E2021210000BD
:00000001FF
